:020000040800F2
:1000000040250020CD010008DB120008D3120008B3
:10001000D712000869030008DD180008000000007E
:10002000000000000000000000000000F9150008BA
:100030006D03000800000000CD150008FB15000846
:10004000E7010008E7010008E7010008E7010008F0
:10005000E7010008E7010008E7010008E7010008E0
:10006000E7010008E7010008E7010008E7010008D0
:10007000E7010008E7010008E7010008E7010008C0
:10008000E7010008E7010008E7010008E7010008B0
:10009000E7010008E7010008E7010008E7010008A0
:1000A000E7010008E7010008E7010008E701000890
:1000B000E7010008C1160008E7010008E701000891
:1000C000E7010008E7010008E7010008E701000870
:1000D000E7010008E7010008E7010008E701000860
:1000E000E7010008E7010008E7010008E701000850
:1000F000E7010008E7010008E7010008E701000840
:10010000E7010008E7010008E7010008E70100082F
:10011000E7010008E7010008E7010008E70100081F
:10012000E7010008E7010008E7010008E70100080F
:1001300000F002F800F03AF80AA090E8000C8244BF
:100140008344AAF10107DA4501D100F02FF8AFF29C
:10015000090EBAE80F0013F0010F18BFFB1A43F0A5
:1001600001031847D41E0000F41E0000103A24BFFB
:1001700078C878C1FAD8520724BF30C830C144BF0C
:1001800004680C607047000000230024002500264E
:10019000103A28BF78C1FBD8520728BF30C148BFEA
:1001A0000B6070471FB51FBD10B510BD00F096F86D
:1001B0001146FFF7F7FF01F0DFFB00F0C8F803B4CA
:1001C000FFF7F2FF03BC01F0C9FB000009488047BC
:1001D00009480047FEE7FEE7FEE7FEE7FEE7FEE729
:1001E000FEE7FEE7FEE7FEE704480549054A064B41
:1001F0007047000069160008310100084001002026
:1002000040250020400500204005002070470000E8
:100210000FB4044910B503AA029800F031F810BCDD
:100220005DF814FB040000204FF0000200B51346F7
:1002300094469646203922BFA0E80C50A0E80C5006
:10024000B1F12001BFF4F7AF090728BFA0E80C50B7
:1002500048BF0CC05DF804EB890028BF40F8042BB0
:1002600008BF704748BF20F8022B11F0804F18BF1D
:1002700000F8012B704770477047704770470000C7
:10028000074B70B50D467B4400F011F80446284634
:1002900000F020F810B14FF0FF3070BD204670BD67
:1002A000D716000001694A1C02610878704700B542
:1002B0008FB0CDE901310021059105497944CDE99F
:1002C00003101146684600F02EF80FB000BD000084
:1002D000E5FFFFFF007B00F080007047754600F0EF
:1002E0003FF8AE4605006946534620F007008546B4
:1002F00018B020B5FFF778FFBDE820404FF00006AA
:100300004FF000074FF000084FF0000B21F00701FD
:10031000AC46ACE8C009ACE8C009ACE8C009ACE840
:10032000C0098D4670472DE9F04106460024D6E904
:100330000170F5688046304603E04146B847641CCA
:100340003046A8470028F8D12046BDE8F08110B516
:100350000446AFF300802046BDE81040FFF72FBFF2
:1003600000487047DC00002000BFFEE7704700BF78
:10037000FEE700002DE9F847024600239C467BE19A
:100380004FF0010808FA03F4D1F8008008EA0400ED
:10039000A0427DD1DFF8F4A2D1F80480A8EB0A09CD
:1003A000D0453AD014DCB8F1030F50D009DCB8F1D5
:1003B000000F31D0B8F1010F1CD0B8F1020F49D1B4
:1003C00020E0B8F1110F18D0B8F1120F42D11EE0A1
:1003D000B9F5881F25D006DCB9F5803F20D0B9F5E6
:1003E000801F37D11AE0B9F5001F18D0B9F5041FE6
:1003F00030D117E0D1F80CC02DE0D1F80C8008F115
:10040000040C28E0D1F80C8008F1080C23E0D1F8A6
:100410000C8008F10C0C1EE000BF00BF00BF00BF45
:1004200000BF00BFD1F80880B8F1000F02D14FF033
:10043000040C0BE0D1F80880B8F1010F03D14FF0A4
:10044000080C146102E04FF0080C546103E04FF017
:10045000000C00E000BF00BFFF2801D8904601E07B
:1004600002F104084646FF2802D84FEA830803E059
:10047000A3F108084FEA88084746D6F800804FF0F5
:100480000F0909FA07F928EA09080CFA07F900E048
:100490007AE048EA0908C6F80080D1F8048008F03C
:1004A0008058B8F1805F6FD100BFDFF8E481D8F8E1
:1004B000188048F00108DFF8D891C9F81880C846BC
:1004C000D8F8188008F00108CDF8008000BF00BF00
:1004D0004FEAB9384FEA930958F829504FEA837820
:1004E0004FEA18794FF00F0808FA09F825EA0805CD
:1004F000DFF8A081424502D14FF0000824E0DFF888
:100500009881424502D14FF001081DE0DFF88C814F
:10051000424502D14FF0020816E0DFF884814245DF
:1005200002D14FF003080FE0DFF87881424502D195
:100530004FF0040808E0DFF87081424502D14FF027
:10054000050801E04FF006084FEA83794FEA197970
:1005500008FA09F848EA0505DFF850814FEA9309DF
:1005600048F82950D1F8048008F48038B8F5803F65
:100570000BD1DFF83C81D8F8008048EA0008DFF8AA
:100580003091C9F800800AE075E0DFF82481D8F8DE
:10059000008028EA0008DFF81891C9F80080D1F837
:1005A000048008F40038B8F5003F0ED1DFF8008170
:1005B00008F10408D8F8008048EA0008DFF8F09055
:1005C00009F10409C9F800800DE0DFF8E48008F1C2
:1005D0000408D8F8008028EA0008DFF8D49009F170
:1005E0000409C9F80080D1F8048008F48018B8F52F
:1005F000801F0ED1DFF8B88008F10808D8F8008015
:1006000048EA0008DFF8A89009F10809C9F8008055
:100610000DE0DFF89C8008F10808D8F8008028EA8F
:100620000008DFF88C9009F10809C9F80080D1F8BA
:10063000048008F40018B8F5001F0ED1DFF87080B0
:1006400008F10C08D8F8008048EA0008DFF860904C
:1006500009F10C09C9F800800DE0DFF8548008F1B9
:100660000C08D8F8008028EA0008DFF8449009F167
:100670000C09C9F800805B1CD1F8008028FA03F847
:10068000B8F1000F7FF47CAEBDE8F88700001110D0
:100690000010024000080140000C01400010014021
:1006A0000014014000180140001C014008000140F6
:1006B000000401400AB1016101E00B0403617047CD
:1006C00001480068704700001000002003480068DF
:1006D0000349097808440149086070471000002068
:1006E0001800002010B50848006840F010000649C6
:1006F0000860032000F080F80F2000F007F800F0F9
:100700002BF8002010BD00000020024070B5044608
:100710000E4800784FF47A71B1FBF0F00C4909688B
:10072000B1FBF0F5284600F0E3FB08B1012070BDF5
:10073000102C07D200222146501E00F01EF805485A
:10074000046001E00120F2E70020F0E7180000203B
:1007500000000020140000207047014608460028D1
:1007600009DB00F01F0301229A4043099B0003F1BB
:10077000E023C3F8002100BF70472DE9F05F8046F9
:100780000D461646002701F0CDF8074639462A46A1
:10079000334601F00700C0F1070ABAF1040F02D98D
:1007A0004FF0040A01E0C0F1070AD14600F1040A43
:1007B000BAF1070F02D24FF0000A01E0A0F1030ADC
:1007C000D4464FF0010A0AFA09FAAAF1010A0AEA24
:1007D000020A0AFA0CFA4FF0010B0BFA0CFBABF110
:1007E000010B0BEA030B4AEA0B042146404601F0D9
:1007F000A1F8BDE8F09F000000BF00F00702064B23
:1008000019684FF6FF031940044B0B4343EA0221DA
:10081000014B196000BF70470CED00E00000FA05C5
:1008200070B504460D460CB9012070BD5A480068E9
:1008300000F00700A8420ED25748006820F00700D9
:100840002843554908600846006800F00700A842A0
:1008500001D00120E9E7207800F0020002281DD134
:10086000207800F00400042805D14C48406840F48A
:10087000E0604A494860207800F00800082805D167
:100880004648406840F460504449486043484068E6
:1008900020F0F000A168084340494860207800F04B
:1008A000010078B36068012806D13C48006800F474
:1008B000003090B90120B8E76068022806D13748B7
:1008C000006800F0007040B90120AEE733480068CE
:1008D00000F0020008B90120A7E73048406820F086
:1008E0000300616808432D494860FFF7E9FE0646AA
:1008F00009E0FFF7E5FE801B41F28831884202D90A
:10090000032092E707E02548406800F00C0061688A
:10091000B0EB810FEDD12048006800F00700A8423D
:100920000ED91D48006820F0070028431A490860C6
:100930000846006800F00700A84201D0012074E7D3
:10094000207800F00400042807D11448406820F4FF
:10095000E060E168084311494860207800F0080031
:10096000082808D10D48406820F46050216940EA09
:10097000C1000A49486000F03FF808494968C1F3DE
:100980000311074A515CC8400649086006480068E0
:10099000FFF7BCFE002048E70020024000100240A4
:1009A000301A0008000000201400002001480068F0
:1009B000704700000000002000B5FFF7F7FF044972
:1009C0004968C1F30221034A515CC84000BD0000E0
:1009D00000100240401A000800B5FFF7E7FF044985
:1009E0004968C1F3C221034A515CC84000BD000000
:1009F00000100240401A0008F0B585B00FF26C0CF0
:100A00009CE8E01001A8A0E8E0101CA52D68009566
:100A100000210022002300240020194D696801F004
:100A20000C05F5B1042D02D0082D19D101E01548AF
:100A300019E001ADC1F38346AC5D01F4803555B1D9
:100A40000F4D6D68C5F340451DF805200D4D6543FC
:100A5000B5FBF2F302E00C4D04FB05F3184602E08F
:100A600000BF084800BF00BF05B0F0BD0203040589
:100A7000060708090A0B0C0D0E0F101001020000EA
:100A80000010024000127A0000093D00F8B504464B
:100A90000CB90120F8BD207800F00100002878D0C2
:100AA000F848406800F00C0004280CD0F548406875
:100AB00000F00C00082811D1F248406800F48030A2
:100AC000B0F5803F0AD1EF48006800F400300028FC
:100AD0005FD0606800285CD10120DBE700BF606860
:100AE000B0F5803F06D1E748006840F48030E54922
:100AF000086028E0606858B9E248006820F4803057
:100B0000E04908600846006820F4802008601AE088
:100B10006068B0F5A02F0BD1DA48006840F480205F
:100B2000D84908600846006840F4803008600AE050
:100B3000D448006820F48030D24908600846006834
:100B400020F48020086000BF606888B1FFF7B8FD1E
:100B5000054606E0FFF7B4FD401B642801D90320D9
:100B600098E7C848006800F400300028F2D010E090
:100B7000FFF7A6FD054606E0FFF7A2FD401B64282F
:100B800001D9032086E7BF48006800F40030002840
:100B9000F2D1207800F00200022857D1B94840680D
:100BA00000F00C0050B1B748406800F00C00082875
:100BB00018D1B448406800F4803098B9B148006852
:100BC00000F0020020B12069012801D0012061E776
:100BD000AC48006820F0F800616940EAC100A9490A
:100BE000086033E02069E8B10120A7490860FFF7F9
:100BF00067FD054606E0FFF763FD401B022801D9AB
:100C0000032047E79F48006800F002000028F2D068
:100C10009C48006820F0F800616940EAC1009949E9
:100C2000086013E0002098490860FFF749FD054679
:100C300006E0FFF745FD401B022801D9032029E704
:100C40009048006800F002000028F2D1207800F0FF
:100C5000080008282DD1A069B8B101208B4908608F
:100C6000FFF72EFD054606E0FFF72AFD401B022890
:100C700001D903200EE78348406A00F002000028F3
:100C8000F2D0012000F0A4FC13E000207F490860AE
:100C9000FFF716FD054606E0FFF712FD401B022890
:100CA00001D90320F6E67748406A00F002000028E8
:100CB000F2D1207800F00400042873D10027714895
:100CC000C06900F0805070B900BF6E48C06940F044
:100CD00080506C49C8610846C06900F0805000909F
:100CE00000BF00BF01276A48006800F48070B0B9F7
:100CF0006748006840F4807065490860FFF7E0FCD1
:100D0000054606E0FFF7DCFC401B642801D9032000
:100D1000C0E65F48006800F480700028F2D000BF91
:100D2000E068012806D15748006A40F001005549A3
:100D3000086227E0E06858B95248006A20F00100D4
:100D4000504908620846006A20F00400086219E071
:100D5000E06805280BD14B48006A40F0040049497F
:100D600008620846006A40F0010008620AE045484F
:100D7000006A20F00100434908620846006A20F03A
:100D80000400086200BFE068A0B1FFF799FC0546C7
:100D900009E0FFF795FC401B41F28831884202D9F7
:100DA000032077E622E03748006A00F002000028BE
:100DB000EFD012E0FFF784FC054608E0FFF780FC67
:100DC000401B41F28831884201D9032062E62D4858
:100DD000006A00F002000028F0D1012F05D1294857
:100DE000C06920F080502749C86100BFE069C8B3DE
:100DF0002448406800F00C00082860D0E069022810
:100E000048D1002020490866FFF75AFC054606E055
:100E1000FFF756FC401B022801D903203AE6194887
:100E2000006800F000700028F2D1206AB0F5803F21
:100E300007D11448406820F40030A16808431149E4
:100E40004860D4E9080108430E49496821F4741147
:100E500008430C49486001200B490866FFF730FC45
:100E6000054607E03DE0FFF72BFC401B022801D9B7
:100E700003200FE60348006800F000700028F2D05D
:100E80002FE0000000100240000042428004424275
:100E900000700040002014490866FFF711FC054669
:100EA00006E0FFF70DFC401B022801D90320F1E505
:100EB0000E48006800F000700028F2D111E0E069EF
:100EC000012800D1E6E50948466806F48031206A29
:100ED000814204D106F47011606A814201D0012080
:100EE000D8E50020D6E50000000042420010024094
:100EF00070B504462546681EB0F1807F01D30120FD
:100F00000FE0681E4FF0E02148610F214FF0FF30E5
:100F100000F010FD00204FF0E021886107200861FB
:100F2000002070BD70477047704710B504462068B8
:100F30000069C0F34000D8B12068C068C0F3400029
:100F4000B0B16FF0020021680861012020772068AD
:100F5000806900F0030018B12046FFF7E5FF05E0C7
:100F6000204600F0ADF8204600F0ACF800202077D5
:100F700020680069C0F38000D8B12068C068C0F361
:100F80008000B0B16FF00400216808610220207772
:100F90002068806900F4407018B12046FFF7C4FF54
:100FA00005E0204600F08CF8204600F08BF8002089
:100FB000207720680069C0F3C000D8B12068C068FD
:100FC000C0F3C000B0B16FF00800216808610420D0
:100FD00020772068C06900F0030018B12046FFF7B1
:100FE000A3FF05E0204600F06BF8204600F06AF809
:100FF0000020207720680069C0F30010D8B1206875
:10100000C068C0F30010B0B16FF010002168086133
:10101000082020772068C06900F4407018B120468D
:10102000FFF782FF05E0204600F04AF8204600F076
:1010300049F8002020772068006900F0010058B1CD
:101040002068C06800F0010030B16FF00100216835
:101050000861204600F04AF820680069C0F3C0101B
:1010600058B12068C068C0F3C01030B16FF0800084
:10107000216808612046FFF755FF20680069C0F32A
:10108000801058B12068C068C0F3801030B16FF094
:10109000400021680861204600F029F820680069B6
:1010A000C0F3401058B12068C068C0F3401030B1A0
:1010B0006FF02000216808612046FFF734FF10BD63
:1010C00070470000064A0168914207D10549097836
:1010D00001EB81018900044A1268516370470000E6
:1010E000000400400C0000209C0000207047704766
:1010F00010B504460CB9012010BDA06900B100E094
:1011000000BF94F8390028B9002084F83800204640
:1011100000F028F8242084F839002068C06820F402
:1011200000502168C860204600F0D2FA20680069AB
:1011300020F49040216808612068406920F02A006E
:10114000216848612068C06840F400502168C86088
:101150000020E063202084F8390084F83A00002061
:10116000CAE7000010B586B0044600200290039044
:10117000049005901E49206888422FD100BF1D4869
:10118000806940F480401B4988610846806900F40A
:101190008040019000BF00BF00BF0846806940F05A
:1011A000040088610846806900F00400019000BFD7
:1011B00000BF4815029002200390012004900320F4
:1011C000059002A90C48FFF7D5F84FF48060029013
:1011D0000020039002A90848FFF7CCF80022012163
:1011E0002520FFF7CAFA2520FFF7B7FA06B010BD91
:1011F0000038014000100240000801402DE9F8438A
:1012000004460D4616461F464FF0000994F8390073
:1012100020285CD105B116B90120BDE8F88300BFD4
:1012200094F83800012801D10220F6E7012084F863
:10123000380000BF0020E063212084F83900FFF768
:101240003FFA8146A684E6842BE0E08C401EE084D1
:10125000A068B0F5805F16D14B4600228021204661
:10126000009700F005FB08B10320D6E7A846B8F8C0
:101270000000C0F3080021684860206908B9AD1C6F
:101280000FE06D1C0DE04B460022802120460097A8
:1012900000F0EEFA08B10320BFE715F8010B216852
:1012A0004860E08C0028D0D14B46002240212046E7
:1012B000009700F0DDFA08B10320AEE7202084F8A3
:1012C000390000BF002084F8380000BFA5E70220E5
:1012D000A3E700BFFEE700BFFEE7704770B500243C
:1012E0000EE00021204600F0F2F8002504E0002086
:1012F00000F05CF9681CC5B2802DF8DB601CC4B23C
:10130000082CEEDB70BD000000B585B000BF00BF4B
:101310001548806940F008001349886108468069D3
:1013200000F00800009000BF00BF00BF1120029035
:10133000032004908815019001A90C48FFF71AF8C2
:101340004FF40070019001A90848FFF713F801223B
:1013500011020648FFF7AEF9012251020348FFF7D8
:10136000A9F905B000BD000000100240000C0140CA
:1013700070B50546002415E08020204100EA0502F2
:101380004FF400710E48FFF795F9012211020C4845
:10139000FFF790F900224FF480710948FFF78AF9AE
:1013A000601CC4B2082CE7DB012211020448FFF7DD
:1013B00081F900224FF480710148FFF77BF970BD7D
:1013C000000C014010B5012251020A48FFF772F9E2
:1013D000012211020748FFF76DF900224FF4007156
:1013E0000448FFF767F900224FF480710148FFF7C6
:1013F00061F910BD000C014010B500224FF40071DE
:101400000648FFF757F9012211020448FFF752F985
:10141000012251020148FFF74DF910BD000C0140B7
:1014200070B5002406E0002500E06D1CB5F57A7F5C
:10143000FBD3641CB4F57A7FF5D3FFF765FFAE20CC
:1014400000F0A4F8D52000F0A1F8802000F09EF86C
:10145000A82000F09BF83F2000F098F8D32000F07F
:1014600095F8002000F092F8402000F08FF8A120BD
:1014700000F08CF8C82000F089F8DA2000F086F837
:10148000122000F083F8812000F080F8CF2000F0D7
:101490007DF8D92000F07AF8F12000F077F8DB2011
:1014A00000F074F8302000F071F8A42000F06EF81D
:1014B000A62000F06BF88D2000F068F8142000F0F2
:1014C00065F8AF2000F062F8FFF708FF70BD70B557
:1014D00005460C4645F0B00000F058F8102141EAEE
:1014E000141000F053F804F00F0000F04FF870BD36
:1014F0002DE9F04105460E461746721ED206110E22
:101500006A1E5206100EFFF7E2FF002409E0A7F161
:101510002001134A02EB0111085D00F047F8601C3E
:10152000C4B2082CF3DB721ED206110E6A1E012310
:1015300003EB4202D0B2FFF7CAFF00240BE0A7F191
:101540002001074A02EB011204F10801505C00F08F
:101550002DF8601CC4B2082CF1DBBDE8F08100005E
:10156000481A00082DE9F04107460E4615460024AA
:1015700007E02A5D3019C1B23846FFF7B9FF601C99
:10158000C4B2285D0028F4D1BDE8F08110B504464E
:10159000FFF718FF7820FFF7EBFE0020FFF7E8FECB
:1015A0002046FFF7E5FEFFF727FF10BD10B5044604
:1015B000FFF708FF7820FFF7DBFE4020FFF7D8FE9B
:1015C0002046FFF7D5FEFFF717FF10BD704700005C
:1015D00008B508490968C9084FF47A72B1FBF2F1FD
:1015E0004143009100BF00BF00994A1E00920029AC
:1015F000F9D108BD00000020704710B5FFF766F86C
:1016000010BD00B58FB0282105A8FEF70DFE1421EE
:101610006846FEF709FE01200590000406900020B0
:1016200007900120099002200C90C1030D914FF406
:10163000E0110E9105A8FFF729FA08B100BFFEE7F7
:101640000F20009002200190002002904FF4806053
:1016500003900020049002216846FFF7E1F808B1EA
:1016600000BFFEE70FB000BD1148006840F0010068
:101670000F490860084640680E4908400C49486018
:10168000084600680C490840094908600846006897
:1016900020F4802008600846406820F4FE0048607E
:1016A0004FF41F008860C8030449086070470000B9
:1016B000001002400000FFF8FFFFF6FE08ED00E01A
:1016C00010B50248FFF731FC10BD00009C0000205F
:1016D00070B504462168096921F44051E26811435C
:1016E000226811612269A1681143626941EA020519
:1016F0002168C96841F20C62914329432268D16094
:101700002168496921F44071A2691143226851613D
:10171000564A2168914254D1FFF75EF900EBC001AF
:1017200001EB001162689200B1FBF2F100EBC00224
:1017300002EB001263689B00B2FBF3F26423B2FB7E
:10174000F3F202EBC20303EB0212A1EB820132229D
:1017500002EB01116422B1FBF2F101F0F00100EBA8
:10176000C00202EB001263689B00B2FBF3F2642339
:10177000B2FBF3F201EB021200EBC00101EB00112E
:1017800063689B00B1FBF3F100EBC00303EB0013B4
:101790006668B600B3FBF6F36426B3FBF6F303EB1F
:1017A000C30606EB0313A1EB8301322303EB011104
:1017B0006423B1FBF3F101F00F0111442268916041
:1017C00053E0FFF7F9F800EBC00101EB001162688C
:1017D0009200B1FBF2F100EBC00202EB0012636871
:1017E0009B00B2FBF3F26423B2FBF3F202EBC20301
:1017F00003EB0212A1EB8201322202EB01116422FF
:10180000B1FBF2F101F0F00100EBC00202EB0012BB
:1018100063689B00B2FBF3F26423B2FBF3F201EBCB
:10182000021200EBC00101EB001163689B00B1FBE9
:10183000F3F100EBC00303EB00136668B600B3FBE3
:10184000F6F36426B3FBF6F303EBC30606EB0313D0
:10185000A1EB8301322303EB01116423B1FBF3F10C
:1018600001F00F0111442268916070BD0038014001
:101870002DE9F04104460D4617469846069E21E0A4
:10188000701CF8B12EB1FEF71BFFA0EB0800B042B0
:1018900018D92068C06820F4D0702168C86020681A
:1018A000406920F0010021684861202084F8390057
:1018B00084F83A0000BF002084F8380000BF0320FD
:1018C000BDE8F081206800682840A84201D10120CD
:1018D00000E00020B842D3D00020F1E700BFFEE7CF
:1018E00010B504460D480E490860084644600021C2
:1018F0008160C16001610C21416100218161FFF7BC
:10190000F7FB08B1FEF733FD05480068C06840F0FA
:10191000200003490968C86010BD0000003801407C
:101920001C00002002480068C0F30220704700003D
:101930000CED00E010B5002804DB0A07130E054A81
:10194000135406E00A07140E034A00F00F031B1F8E
:10195000D45410BD00E400E018ED00E07047000032
:1019600013B50C460A23012269460248FFF746FCDC
:1019700000981CBD1C000020FEF7B4FEFFF741FEDE
:101980004FF4E130FFF7ACFF0AA0FEF741FC16A0D0
:10199000FEF73EFC1DA0FEF73BFC06A0FEF738FC60
:1019A000FFF73EFD1FA201210846FFF7DBFD00BF48
:1019B000FEE700002A2A2A2A2A2A2A2A2A2A2A2A4A
:1019C0002A2A2A2A2A2A2A2A2A2A2A2A2A2A2A2A77
:1019D0002A2A2A2A2A2A2A2A2A2A2A2A2A2A2A2A67
:1019E0002A2A0A0D000000002D2D3EE799BEE99736
:1019F000AEE7A791E68A80EFBC9A7777772E3130F1
:101A00003061736B2E6E65740A0D00002D2D3E4CF7
:101A10004344E698BEE7A4BAE5AE9EE9AA8C0A0D57
:101A2000000000004C4544305F5245440000000077
:101A3000000000000000000001020304060708097E
:101A4000000000000102030400000000000000008C
:101A50000000000000000000000000F8000000008E
:101A6000000000333000000000100C06100C0600CF
:101A7000000000000000000040C07840C078400036
:101A8000043F04043F040400007088FC0830000098
:101A9000001820FF211E0000F008F000E0180000F0
:101AA00000211C031E211E0000F0088870000000A9
:101AB0001E2123241927211010160E0000000000FB
:101AC0000000000000000000000000E01804020018
:101AD000000000071820400000020418E000000089
:101AE0000040201807000000404080F08040400087
:101AF0000202010F01020200000000F000000000DD
:101B00000101011F010101000000000000000000B0
:101B100080B0700000000000000000000000000025
:101B200000010101010101010000000000000000AE
:101B30000030300000000000000000008060180449
:101B4000006018060100000000E010080810E00026
:101B5000000F102020100F00001010F800000000EF
:101B60000020203F20200000007008080888700036
:101B700000302824222130000030088888483000B6
:101B80000018202020110E000000C02010F80000D6
:101B900000070424243F240000F80888880808006F
:101BA0000019212020110E0000E010888818000084
:101BB000000F112020110E0000380808C838080056
:101BC0000000003F000000000070880808887000D6
:101BD000001C222121221C0000E010080810E00057
:101BE0000000312222110F00000000C0C0000000E0
:101BF0000000003030000000000000800000000005
:101C000000008060000000000000804020100800FC
:101C100000010204081020004040404040404000C5
:101C200004040404040404000008102040800000A0
:101C30000020100804020100007048080808F000A5
:101C40000000003036010000C030C828E810E00075
:101C50000718272423140B000000C038E000000000
:101C6000203C23020227382008F88888887000006A
:101C7000203F202020110E00C0300808080838003E
:101C8000071820202010080008F808080810E000B5
:101C9000203F202020100F0008F88888E808100056
:101CA000203F20202320180008F88888E80810002A
:101CB000203F200003000000C03008080838000062
:101CC00007182020221E020008F808000008F80863
:101CD000203F210101213F20000808F808080000EA
:101CE0000020203F2020000000000808F80808001D
:101CF000C08080807F00000008F888C02818080095
:101D0000203F20012638200008F8080000000000CD
:101D1000203F20202020300008F8F800F8F80800C4
:101D2000203F003F003F200008F830C00008F808BE
:101D3000203F200007183F00E01008080810E000CE
:101D40000F10202020100F0008F808080808F000E5
:101D5000203F210101010000E01008080810E00008
:101D60000F18242438504F0008F88888888870009D
:101D7000203F2000030C302000708808080838003D
:101D80000038202121221C00180808F80808180033
:101D90000000203F2000000008F808000008F808B4
:101DA000001F202020201F000878880000C8380865
:101DB000000007380E010000F80800F80008F800DD
:101DC000033C0700073C0300081868808068180877
:101DD00020302C03032C30200838C800C8380800F5
:101DE0000000203F2000000010080808C838080044
:101DF0002038262120201800000000FE02020200E8
:101E00000000007F40404000000C30C00000000097
:101E1000000000010638C00000020202FE000000BF
:101E2000004040407F000000000004020202040065
:101E300000000000000000000000000000000000A2
:101E4000808080808080808000020204000000008A
:101E50000000000000000000000080808080000082
:101E60000019242222223F2008F800808000000070
:101E7000003F112020110E00000000808080000033
:101E8000000E112020201100000000808088F80042
:101E9000000E112020103F20000080808080000074
:101EA000001F222222221300008080F088888818D8
:101EB0000020203F202000000000808080808000E3
:101EC000006B94949493600008F800808080000078
:101ED000203F210000203F20008098980000000053
:101EE0000020203F20200000000000809898000083
:101EF00000C08080807F000008F8000080808000A3
:101F0000203F24022D302000000808F800000000C7
:101F10000020203F20200000808080808080800082
:101F2000203F20003F20003F808000808080000014
:101F3000203F210000203F200000808080800000A2
:101F4000001F202020201F008080008080000000D3
:101F500080FFA12020110E00000000808080800002
:101F6000000E112020A0FF808080800080808000F3
:101F700020203F2120000100000080808080800020
:101F80000033242424241900008080E08080000095
:101F90000000001F202000008080000000808000E2
:101FA000001F202020103F20808080000080808043
:101FB00000010E30080601008080008000808080D3
:101FC0000F300C030C300F000080800080808000F8
:101FD0000020312E0E312000808080000080808023
:101FE00080818E70180601000080808080808000D3
:101FF0000021302C2221300000000000807C0202F1
:1020000000000000003F404000000000FF00000012
:1020100000000000FF0000000002027C80000000C1
:102020000040403F000000000006010102020404DD
:102030000000000000000000582000080000002000
:102040001C0000006C010008742000081C00002027
:1020500024250000880100080024F400000000008E
:102060000000000000000000000000001000000060
:04207000010000006B
:0400000508000131BD
:00000001FF
